2019-06-22 23:47:31,996 : S >> (8=FIXT.1.1|9=83|35=A|34=1|49=pjseoane232|52=20190623-02:47:31.000|56=ROFX|98=0|108=30|141=Y|1137=9|10=226|)
2019-06-22 23:48:32,040 : S >> (8=FIXT.1.1|9=83|35=A|34=1|49=pjseoane232|52=20190623-02:48:32.000|56=ROFX|98=0|108=30|141=Y|1137=9|10=228|)
2019-06-22 23:49:32,084 : S >> (8=FIXT.1.1|9=83|35=A|34=1|49=pjseoane232|52=20190623-02:49:32.000|56=ROFX|98=0|108=30|141=Y|1137=9|10=229|)
2019-06-22 23:50:32,115 : S >> (8=FIXT.1.1|9=83|35=A|34=1|49=pjseoane232|52=20190623-02:50:32.000|56=ROFX|98=0|108=30|141=Y|1137=9|10=221|)
2019-06-22 23:51:32,141 : S >> (8=FIXT.1.1|9=83|35=A|34=1|49=pjseoane232|52=20190623-02:51:32.000|56=ROFX|98=0|108=30|141=Y|1137=9|10=222|)
2019-06-22 23:52:32,183 : S >> (8=FIXT.1.1|9=83|35=A|34=1|49=pjseoane232|52=20190623-02:52:32.000|56=ROFX|98=0|108=30|141=Y|1137=9|10=223|)
2019-06-22 23:53:32,197 : S >> (8=FIXT.1.1|9=83|35=A|34=1|49=pjseoane232|52=20190623-02:53:32.000|56=ROFX|98=0|108=30|141=Y|1137=9|10=224|)
2019-06-22 23:54:32,244 : S >> (8=FIXT.1.1|9=83|35=A|34=1|49=pjseoane232|52=20190623-02:54:32.000|56=ROFX|98=0|108=30|141=Y|1137=9|10=225|)
2019-06-22 23:55:32,262 : S >> (8=FIXT.1.1|9=83|35=A|34=1|49=pjseoane232|52=20190623-02:55:32.000|56=ROFX|98=0|108=30|141=Y|1137=9|10=226|)
2019-06-22 23:56:32,303 : S >> (8=FIXT.1.1|9=83|35=A|34=1|49=pjseoane232|52=20190623-02:56:32.000|56=ROFX|98=0|108=30|141=Y|1137=9|10=227|)
2019-06-22 23:57:32,329 : S >> (8=FIXT.1.1|9=83|35=A|34=1|49=pjseoane232|52=20190623-02:57:32.000|56=ROFX|98=0|108=30|141=Y|1137=9|10=228|)
2019-06-22 23:58:32,354 : S >> (8=FIXT.1.1|9=83|35=A|34=1|49=pjseoane232|52=20190623-02:58:32.000|56=ROFX|98=0|108=30|141=Y|1137=9|10=229|)
2019-06-23 00:00:32,404 : S >> (8=FIXT.1.1|9=58|35=5|34=1|49=pjseoane232|52=20190623-03:00:32.000|56=ROFX|10=070|)
2019-06-23 00:00:32,428 : S >> (8=FIXT.1.1|9=83|35=A|34=1|49=pjseoane232|52=20190623-03:00:32.000|56=ROFX|98=0|108=30|141=Y|1137=9|10=217|)
