2019-06-22 19:33:30,411 : S >> (8=FIXT.1.1|9=83|35=A|34=1|49=pjseoane232|52=20190622-22:33:30.000|56=ROFX|98=0|108=30|141=Y|1137=9|10=221|)
