2019-06-23 20:29:58,383 : S >> (8=FIXT.1.1|9=83|35=A|34=1|49=pjseoane232|52=20190623-23:29:58.000|56=ROFX|98=0|108=30|141=Y|1137=9|10=238|)
