2019-06-23 00:36:10,012 : S >> (8=FIXT.1.1|9=83|35=A|34=1|49=pjseoane232|52=20190623-03:36:10.000|56=ROFX|98=0|108=30|141=Y|1137=9|10=222|)
